{
  "contractName": "ERC884ReferenceImpl",
  "abi": [
    {
      "constant": true,
      "inputs": [],
      "name": "mintingFinished",
      "outputs": [
        {
          "name": "",
          "type": "bool"
        }
      ],
      "payable": false,
      "stateMutability": "view",
      "type": "function"
    },
    {
      "constant": false,
      "inputs": [
        {
          "name": "_spender",
          "type": "address"
        },
        {
          "name": "_value",
          "type": "uint256"
        }
      ],
      "name": "approve",
      "outputs": [
        {
          "name": "",
          "type": "bool"
        }
      ],
      "payable": false,
      "stateMutability": "nonpayable",
      "type": "function"
    },
    {
      "constant": true,
      "inputs": [],
      "name": "totalSupply",
      "outputs": [
        {
          "name": "",
          "type": "uint256"
        }
      ],
      "payable": false,
      "stateMutability": "view",
      "type": "function"
    },
    {
      "constant": true,
      "inputs": [],
      "name": "decimals",
      "outputs": [
        {
          "name": "",
          "type": "uint256"
        }
      ],
      "payable": false,
      "stateMutability": "view",
      "type": "function"
    },
    {
      "constant": false,
      "inputs": [
        {
          "name": "_spender",
          "type": "address"
        },
        {
          "name": "_subtractedValue",
          "type": "uint256"
        }
      ],
      "name": "decreaseApproval",
      "outputs": [
        {
          "name": "",
          "type": "bool"
        }
      ],
      "payable": false,
      "stateMutability": "nonpayable",
      "type": "function"
    },
    {
      "constant": true,
      "inputs": [
        {
          "name": "_owner",
          "type": "address"
        }
      ],
      "name": "balanceOf",
      "outputs": [
        {
          "name": "",
          "type": "uint256"
        }
      ],
      "payable": false,
      "stateMutability": "view",
      "type": "function"
    },
    {
      "constant": false,
      "inputs": [],
      "name": "renounceOwnership",
      "outputs": [],
      "payable": false,
      "stateMutability": "nonpayable",
      "type": "function"
    },
    {
      "constant": false,
      "inputs": [],
      "name": "finishMinting",
      "outputs": [
        {
          "name": "",
          "type": "bool"
        }
      ],
      "payable": false,
      "stateMutability": "nonpayable",
      "type": "function"
    },
    {
      "constant": true,
      "inputs": [],
      "name": "owner",
      "outputs": [
        {
          "name": "",
          "type": "address"
        }
      ],
      "payable": false,
      "stateMutability": "view",
      "type": "function"
    },
    {
      "constant": false,
      "inputs": [
        {
          "name": "_spender",
          "type": "address"
        },
        {
          "name": "_addedValue",
          "type": "uint256"
        }
      ],
      "name": "increaseApproval",
      "outputs": [
        {
          "name": "",
          "type": "bool"
        }
      ],
      "payable": false,
      "stateMutability": "nonpayable",
      "type": "function"
    },
    {
      "constant": true,
      "inputs": [
        {
          "name": "_owner",
          "type": "address"
        },
        {
          "name": "_spender",
          "type": "address"
        }
      ],
      "name": "allowance",
      "outputs": [
        {
          "name": "",
          "type": "uint256"
        }
      ],
      "payable": false,
      "stateMutability": "view",
      "type": "function"
    },
    {
      "constant": false,
      "inputs": [
        {
          "name": "_newOwner",
          "type": "address"
        }
      ],
      "name": "transferOwnership",
      "outputs": [],
      "payable": false,
      "stateMutability": "nonpayable",
      "type": "function"
    },
    {
      "anonymous": false,
      "inputs": [
        {
          "indexed": true,
          "name": "to",
          "type": "address"
        },
        {
          "indexed": false,
          "name": "amount",
          "type": "uint256"
        }
      ],
      "name": "Mint",
      "type": "event"
    },
    {
      "anonymous": false,
      "inputs": [],
      "name": "MintFinished",
      "type": "event"
    },
    {
      "anonymous": false,
      "inputs": [
        {
          "indexed": true,
          "name": "previousOwner",
          "type": "address"
        }
      ],
      "name": "OwnershipRenounced",
      "type": "event"
    },
    {
      "anonymous": false,
      "inputs": [
        {
          "indexed": true,
          "name": "previousOwner",
          "type": "address"
        },
        {
          "indexed": true,
          "name": "newOwner",
          "type": "address"
        }
      ],
      "name": "OwnershipTransferred",
      "type": "event"
    },
    {
      "anonymous": false,
      "inputs": [
        {
          "indexed": true,
          "name": "addr",
          "type": "address"
        },
        {
          "indexed": false,
          "name": "hash",
          "type": "bytes32"
        },
        {
          "indexed": true,
          "name": "sender",
          "type": "address"
        }
      ],
      "name": "VerifiedAddressAdded",
      "type": "event"
    },
    {
      "anonymous": false,
      "inputs": [
        {
          "indexed": true,
          "name": "addr",
          "type": "address"
        },
        {
          "indexed": true,
          "name": "sender",
          "type": "address"
        }
      ],
      "name": "VerifiedAddressRemoved",
      "type": "event"
    },
    {
      "anonymous": false,
      "inputs": [
        {
          "indexed": true,
          "name": "addr",
          "type": "address"
        },
        {
          "indexed": false,
          "name": "oldHash",
          "type": "bytes32"
        },
        {
          "indexed": false,
          "name": "hash",
          "type": "bytes32"
        },
        {
          "indexed": true,
          "name": "sender",
          "type": "address"
        }
      ],
      "name": "VerifiedAddressUpdated",
      "type": "event"
    },
    {
      "anonymous": false,
      "inputs": [
        {
          "indexed": true,
          "name": "original",
          "type": "address"
        },
        {
          "indexed": true,
          "name": "replacement",
          "type": "address"
        },
        {
          "indexed": true,
          "name": "sender",
          "type": "address"
        }
      ],
      "name": "VerifiedAddressSuperseded",
      "type": "event"
    },
    {
      "anonymous": false,
      "inputs": [
        {
          "indexed": true,
          "name": "owner",
          "type": "address"
        },
        {
          "indexed": true,
          "name": "spender",
          "type": "address"
        },
        {
          "indexed": false,
          "name": "value",
          "type": "uint256"
        }
      ],
      "name": "Approval",
      "type": "event"
    },
    {
      "anonymous": false,
      "inputs": [
        {
          "indexed": true,
          "name": "from",
          "type": "address"
        },
        {
          "indexed": true,
          "name": "to",
          "type": "address"
        },
        {
          "indexed": false,
          "name": "value",
          "type": "uint256"
        }
      ],
      "name": "Transfer",
      "type": "event"
    },
    {
      "constant": false,
      "inputs": [
        {
          "name": "_to",
          "type": "address"
        },
        {
          "name": "_amount",
          "type": "uint256"
        }
      ],
      "name": "mint",
      "outputs": [
        {
          "name": "",
          "type": "bool"
        }
      ],
      "payable": false,
      "stateMutability": "nonpayable",
      "type": "function"
    },
    {
      "constant": true,
      "inputs": [],
      "name": "holderCount",
      "outputs": [
        {
          "name": "",
          "type": "uint256"
        }
      ],
      "payable": false,
      "stateMutability": "view",
      "type": "function"
    },
    {
      "constant": true,
      "inputs": [
        {
          "name": "index",
          "type": "uint256"
        }
      ],
      "name": "holderAt",
      "outputs": [
        {
          "name": "",
          "type": "address"
        }
      ],
      "payable": false,
      "stateMutability": "view",
      "type": "function"
    },
    {
      "constant": false,
      "inputs": [
        {
          "name": "addr",
          "type": "address"
        },
        {
          "name": "hash",
          "type": "bytes32"
        }
      ],
      "name": "addVerified",
      "outputs": [],
      "payable": false,
      "stateMutability": "nonpayable",
      "type": "function"
    },
    {
      "constant": false,
      "inputs": [
        {
          "name": "addr",
          "type": "address"
        }
      ],
      "name": "removeVerified",
      "outputs": [],
      "payable": false,
      "stateMutability": "nonpayable",
      "type": "function"
    },
    {
      "constant": false,
      "inputs": [
        {
          "name": "addr",
          "type": "address"
        },
        {
          "name": "hash",
          "type": "bytes32"
        }
      ],
      "name": "updateVerified",
      "outputs": [],
      "payable": false,
      "stateMutability": "nonpayable",
      "type": "function"
    },
    {
      "constant": false,
      "inputs": [
        {
          "name": "original",
          "type": "address"
        },
        {
          "name": "replacement",
          "type": "address"
        }
      ],
      "name": "cancelAndReissue",
      "outputs": [],
      "payable": false,
      "stateMutability": "nonpayable",
      "type": "function"
    },
    {
      "constant": false,
      "inputs": [
        {
          "name": "to",
          "type": "address"
        },
        {
          "name": "value",
          "type": "uint256"
        }
      ],
      "name": "transfer",
      "outputs": [
        {
          "name": "",
          "type": "bool"
        }
      ],
      "payable": false,
      "stateMutability": "nonpayable",
      "type": "function"
    },
    {
      "constant": false,
      "inputs": [
        {
          "name": "from",
          "type": "address"
        },
        {
          "name": "to",
          "type": "address"
        },
        {
          "name": "value",
          "type": "uint256"
        }
      ],
      "name": "transferFrom",
      "outputs": [
        {
          "name": "",
          "type": "bool"
        }
      ],
      "payable": false,
      "stateMutability": "nonpayable",
      "type": "function"
    },
    {
      "constant": true,
      "inputs": [
        {
          "name": "addr",
          "type": "address"
        }
      ],
      "name": "isVerified",
      "outputs": [
        {
          "name": "",
          "type": "bool"
        }
      ],
      "payable": false,
      "stateMutability": "view",
      "type": "function"
    },
    {
      "constant": true,
      "inputs": [
        {
          "name": "addr",
          "type": "address"
        }
      ],
      "name": "isHolder",
      "outputs": [
        {
          "name": "",
          "type": "bool"
        }
      ],
      "payable": false,
      "stateMutability": "view",
      "type": "function"
    },
    {
      "constant": true,
      "inputs": [
        {
          "name": "addr",
          "type": "address"
        },
        {
          "name": "hash",
          "type": "bytes32"
        }
      ],
      "name": "hasHash",
      "outputs": [
        {
          "name": "",
          "type": "bool"
        }
      ],
      "payable": false,
      "stateMutability": "view",
      "type": "function"
    },
    {
      "constant": true,
      "inputs": [
        {
          "name": "addr",
          "type": "address"
        }
      ],
      "name": "isSuperseded",
      "outputs": [
        {
          "name": "",
          "type": "bool"
        }
      ],
      "payable": false,
      "stateMutability": "view",
      "type": "function"
    },
    {
      "constant": true,
      "inputs": [
        {
          "name": "addr",
          "type": "address"
        }
      ],
      "name": "getCurrentFor",
      "outputs": [
        {
          "name": "",
          "type": "address"
        }
      ],
      "payable": false,
      "stateMutability": "view",
      "type": "function"
    }
  ],
  "bytecode": "0x60806040526000600360146101000a81548160ff021916908315150217905550600060045533600360006101000a81548173ffffffffffffffffffffffffffffffffffffffff021916908373ffffffffffffffffffffffffffffffffffffffff160217905550613059806100746000396000f300608060405260043610610154576000357c0100000000000000000000000000000000000000000000000000000000900463ffffffff16806305d2035b14610159578063095ea7b31461018857806318160ddd146101ed578063197bc336146102185780631aab9a9f1461028557806323b872dd146102b05780632da7293e14610335578063313ce56714610390578063354b7b1d146103bb57806340c10f191461040c5780634487b3921461047157806347089f62146104b4578063661884631461050557806370a082311461056a578063715018a6146105c157806379f64720146105d85780637d64bcb41461063b5780638da5cb5b1461066a578063a9059cbb146106c1578063b9209e3314610726578063cc397ed314610781578063d4d7b19a14610804578063d73dd6231461085f578063dd62ed3e146108c4578063f2fde38b1461093b578063f3221c7f1461097e575b600080fd5b34801561016557600080fd5b5061016e6109e7565b604051808215151515815260200191505060405180910390f35b34801561019457600080fd5b506101d3600480360381019080803573ffffffffffffffffffffffffffffffffffffffff169060200190929190803590602001909291905050506109fa565b604051808215151515815260200191505060405180910390f35b3480156101f957600080fd5b50610202610aec565b6040518082815260200191505060405180910390f35b34801561022457600080fd5b5061024360048036038101908080359060200190929190505050610af6565b604051808273ffffffffffffffffffffffffffffffffffffffff1673ffffffffffffffffffffffffffffffffffffffff16815260200191505060405180910390f35b34801561029157600080fd5b5061029a610ba8565b6040518082815260200191505060405180910390f35b3480156102bc57600080fd5b5061031b600480360381019080803573ffffffffffffffffffffffffffffffffffffffff169060200190929190803573ffffffffffffffffffffffffffffffffffffffff16906020019092919080359060200190929190505050610c11565b604051808215151515815260200191505060405180910390f35b34801561034157600080fd5b50610376600480360381019080803573ffffffffffffffffffffffffffffffffffffffff169060200190929190505050610c96565b604051808215151515815260200191505060405180910390f35b34801561039c57600080fd5b506103a5610d8b565b6040518082815260200191505060405180910390f35b3480156103c757600080fd5b5061040a600480360381019080803573ffffffffffffffffffffffffffffffffffffffff1690602001909291908035600019169060200190929190505050610d91565b005b34801561041857600080fd5b50610457600480360381019080803573ffffffffffffffffffffffffffffffffffffffff16906020019092919080359060200190929190505050610f84565b604051808215151515815260200191505060405180910390f35b34801561047d57600080fd5b506104b2600480360381019080803573ffffffffffffffffffffffffffffffffffffffff169060200190929190505050611075565b005b3480156104c057600080fd5b50610503600480360381019080803573ffffffffffffffffffffffffffffffffffffffff169060200190929190803560001916906020019092919050505061121c565b005b34801561051157600080fd5b50610550600480360381019080803573ffffffffffffffffffffffffffffffffffffffff1690602001909291908035906020019092919050505061147d565b604051808215151515815260200191505060405180910390f35b34801561057657600080fd5b506105ab600480360381019080803573ffffffffffffffffffffffffffffffffffffffff16906020019092919050505061170f565b6040518082815260200191505060405180910390f35b3480156105cd57600080fd5b506105d6611757565b005b3480156105e457600080fd5b50610639600480360381019080803573ffffffffffffffffffffffffffffffffffffffff169060200190929190803573ffffffffffffffffffffffffffffffffffffffff16906020019092919050505061185c565b005b34801561064757600080fd5b50610650611d21565b604051808215151515815260200191505060405180910390f35b34801561067657600080fd5b5061067f611de9565b604051808273ffffffffffffffffffffffffffffffffffffffff1673ffffffffffffffffffffffffffffffffffffffff16815260200191505060405180910390f35b3480156106cd57600080fd5b5061070c600480360381019080803573ffffffffffffffffffffffffffffffffffffffff16906020019092919080359060200190929190505050611e0f565b604051808215151515815260200191505060405180910390f35b34801561073257600080fd5b50610767600480360381019080803573ffffffffffffffffffffffffffffffffffffffff169060200190929190505050611e92565b604051808215151515815260200191505060405180910390f35b34801561078d57600080fd5b506107c2600480360381019080803573ffffffffffffffffffffffffffffffffffffffff169060200190929190505050611ee9565b604051808273ffffffffffffffffffffffffffffffffffffffff1673ffffffffffffffffffffffffffffffffffffffff16815260200191505060405180910390f35b34801561081057600080fd5b50610845600480360381019080803573ffffffffffffffffffffffffffffffffffffffff169060200190929190505050611f57565b604051808215151515815260200191505060405180910390f35b34801561086b57600080fd5b506108aa600480360381019080803573ffffffffffffffffffffffffffffffffffffffff16906020019092919080359060200190929190505050611fa3565b604051808215151515815260200191505060405180910390f35b3480156108d057600080fd5b50610925600480360381019080803573ffffffffffffffffffffffffffffffffffffffff169060200190929190803573ffffffffffffffffffffffffffffffffffffffff16906020019092919050505061219f565b6040518082815260200191505060405180910390f35b34801561094757600080fd5b5061097c600480360381019080803573ffffffffffffffffffffffffffffffffffffffff169060200190929190505050612226565b005b34801561098a57600080fd5b506109cd600480360381019080803573ffffffffffffffffffffffffffffffffffffffff169060200190929190803560001916906020019092919050505061228e565b604051808215151515815260200191505060405180910390f35b600360149054906101000a900460ff1681565b600081600260003373ffffffffffffffffffffffffffffffffffffffff1673ffffffffffffffffffffffffffffffffffffffff16815260200190815260200160002060008573ffffffffffffffffffffffffffffffffffffffff1673ffffffffffffffffffffffffffffffffffffffff168152602001908152602001600020819055508273ffffffffffffffffffffffffffffffffffffffff163373ffffffffffffffffffffffffffffffffffffffff167f8c5be1e5ebec7d5bd14f71427d1e84f3dd0314c0f7b2291e5b200ac8c7c3b925846040518082815260200191505060405180910390a36001905092915050565b6000600154905090565b6000600360009054906101000a900473ffffffffffffffffffffffffffffffffffffffff1673ffffffffffffffffffffffffffffffffffffffff163373ffffffffffffffffffffffffffffffffffffffff16141515610b5457600080fd5b60088054905082101515610b6757600080fd5b600882815481101515610b7657fe5b9060005260206000200160009054906101000a900473ffffffffffffffffffffffffffffffffffffffff169050919050565b6000600360009054906101000a900473ffffffffffffffffffffffffffffffffffffffff1673ffffffffffffffffffffffffffffffffffffffff163373ffffffffffffffffffffffffffffffffffffffff16141515610c0657600080fd5b600880549050905090565b600082600060010260001916600560008373ffffffffffffffffffffffffffffffffffffffff1673ffffffffffffffffffffffffffffffffffffffff168152602001908152602001600020546000191614151515610c6e57600080fd5b610c7784612320565b610c818584612414565b610c8c858585612636565b9150509392505050565b6000600360009054906101000a900473ffffffffffffffffffffffffffffffffffffffff1673ffffffffffffffffffffffffffffffffffffffff163373ffffffffffffffffffffffffffffffffffffffff16141515610cf457600080fd5b600073ffffffffffffffffffffffffffffffffffffffff16600660008473ffffffffffffffffffffffffffffffffffffffff1673ffffffffffffffffffffffffffffffffffffffff16815260200190815260200160002060009054906101000a900473ffffffffffffffffffffffffffffffffffffffff1673ffffffffffffffffffffffffffffffffffffffff1614159050919050565b60045481565b6000600360009054906101000a900473ffffffffffffffffffffffffffffffffffffffff1673ffffffffffffffffffffffffffffffffffffffff163373ffffffffffffffffffffffffffffffffffffffff16141515610def57600080fd5b82600060010260001916600560008373ffffffffffffffffffffffffffffffffffffffff1673ffffffffffffffffffffffffffffffffffffffff168152602001908152602001600020546000191614151515610e4a57600080fd5b600060010260001916836000191614151515610e6557600080fd5b600560008573ffffffffffffffffffffffffffffffffffffffff1673ffffffffffffffffffffffffffffffffffffffff16815260200190815260200160002054915082600019168260001916141515610f7e5782600560008673ffffffffffffffffffffffffffffffffffffffff1673ffffffffffffffffffffffffffffffffffffffff16815260200190815260200160002081600019169055503373ffffffffffffffffffffffffffffffffffffffff168473ffffffffffffffffffffffffffffffffffffffff167f63ec12603f028c6f74dc3c59a67d645d431250142b56676015d25475ee3fc3d3848660405180836000191660001916815260200182600019166000191681526020019250505060405180910390a35b50505050565b6000600360009054906101000a900473ffffffffffffffffffffffffffffffffffffffff1673ffffffffffffffffffffffffffffffffffffffff163373ffffffffffffffffffffffffffffffffffffffff16141515610fe257600080fd5b600360149054906101000a900460ff16151515610ffe57600080fd5b82600060010260001916600560008373ffffffffffffffffffffffffffffffffffffffff1673ffffffffffffffffffffffffffffffffffffffff16815260200190815260200160002054600019161415151561105957600080fd5b61106284612320565b61106c84846129f1565b91505092915050565b600360009054906101000a900473ffffffffffffffffffffffffffffffffffffffff1673ffffffffffffffffffffffffffffffffffffffff163373ffffffffffffffffffffffffffffffffffffffff161415156110d157600080fd5b60008060008373ffffffffffffffffffffffffffffffffffffffff1673ffffffffffffffffffffffffffffffffffffffff1681526020019081526020016000205414151561111e57600080fd5b600060010260001916600560008373ffffffffffffffffffffffffffffffffffffffff1673ffffffffffffffffffffffffffffffffffffffff1681526020019081526020016000205460001916141515611219576000600102600560008373ffffffffffffffffffffffffffffffffffffffff1673ffffffffffffffffffffffffffffffffffffffff16815260200190815260200160002081600019169055503373ffffffffffffffffffffffffffffffffffffffff168173ffffffffffffffffffffffffffffffffffffffff167f8071c01a493142de896a206c19ca180d32e91d6486fcf11ea299f569f5d922b560405160405180910390a35b50565b600360009054906101000a900473ffffffffffffffffffffffffffffffffffffffff1673ffffffffffffffffffffffffffffffffffffffff163373ffffffffffffffffffffffffffffffffffffffff1614151561127857600080fd5b81600073ffffffffffffffffffffffffffffffffffffffff16600660008373ffffffffffffffffffffffffffffffffffffffff1673ffffffffffffffffffffffffffffffffffffffff16815260200190815260200160002060009054906101000a900473ffffffffffffffffffffffffffffffffffffffff1673ffffffffffffffffffffffffffffffffffffffff1614151561131357600080fd5b600073ffffffffffffffffffffffffffffffffffffffff168373ffffffffffffffffffffffffffffffffffffffff161415151561134f57600080fd5b60006001026000191682600019161415151561136a57600080fd5b600060010260001916600560008573ffffffffffffffffffffffffffffffffffffffff1673ffffffffffffffffffffffffffffffffffffffff16815260200190815260200160002054600019161415156113c357600080fd5b81600560008573ffffffffffffffffffffffffffffffffffffffff1673ffffffffffffffffffffffffffffffffffffffff16815260200190815260200160002081600019169055503373ffffffffffffffffffffffffffffffffffffffff168373ffffffffffffffffffffffffffffffffffffffff167fb4f9d1d687d745820ae7c948518d6eef182cfbf5ef20b5b6a33769059592e7c88460405180826000191660001916815260200191505060405180910390a3505050565b600080600260003373ffffffffffffffffffffffffffffffffffffffff1673ffffffffffffffffffffffffffffffffffffffff16815260200190815260200160002060008573ffffffffffffffffffffffffffffffffffffffff1673ffffffffffffffffffffffffffffffffffffffff168152602001908152602001600020549050808310151561158f576000600260003373ffffffffffffffffffffffffffffffffffffffff1673ffffffffffffffffffffffffffffffffffffffff16815260200190815260200160002060008673ffffffffffffffffffffffffffffffffffffffff1673ffffffffffffffffffffffffffffffffffffffff16815260200190815260200160002081905550611623565b6115a28382612bd790919063ffffffff16565b600260003373ffffffffffffffffffffffffffffffffffffffff1673ffffffffffffffffffffffffffffffffffffffff16815260200190815260200160002060008673ffffffffffffffffffffffffffffffffffffffff1673ffffffffffffffffffffffffffffffffffffffff168152602001908152602001600020819055505b8373ffffffffffffffffffffffffffffffffffffffff163373ffffffffffffffffffffffffffffffffffffffff167f8c5be1e5ebec7d5bd14f71427d1e84f3dd0314c0f7b2291e5b200ac8c7c3b925600260003373ffffffffffffffffffffffffffffffffffffffff1673ffffffffffffffffffffffffffffffffffffffff16815260200190815260200160002060008873ffffffffffffffffffffffffffffffffffffffff1673ffffffffffffffffffffffffffffffffffffffff168152602001908152602001600020546040518082815260200191505060405180910390a3600191505092915050565b60008060008373ffffffffffffffffffffffffffffffffffffffff1673ffffffffffffffffffffffffffffffffffffffff168152602001908152602001600020549050919050565b600360009054906101000a900473ffffffffffffffffffffffffffffffffffffffff1673ffffffffffffffffffffffffffffffffffffffff163373ffffffffffffffffffffffffffffffffffffffff161415156117b357600080fd5b600360009054906101000a900473ffffffffffffffffffffffffffffffffffffffff1673ffffffffffffffffffffffffffffffffffffffff167ff8df31144d9c2f0f6b59d69b8b98abd5459d07f2742c4df920b25aae33c6482060405160405180910390a26000600360006101000a81548173ffffffffffffffffffffffffffffffffffffffff021916908373ffffffffffffffffffffffffffffffffffffffff160217905550565b6000600360009054906101000a900473ffffffffffffffffffffffffffffffffffffffff1673ffffffffffffffffffffffffffffffffffffffff163373ffffffffffffffffffffffffffffffffffffffff161415156118ba57600080fd5b826000600760008373ffffffffffffffffffffffffffffffffffffffff1673ffffffffffffffffffffffffffffffffffffffff168152602001908152602001600020541415151561190a57600080fd5b826000600760008373ffffffffffffffffffffffffffffffffffffffff1673ffffffffffffffffffffffffffffffffffffffff1681526020019081526020016000205414151561195957600080fd5b83600060010260001916600560008373ffffffffffffffffffffffffffffffffffffffff1673ffffffffffffffffffffffffffffffffffffffff1681526020019081526020016000205460001916141515156119b457600080fd5b6000600102600560008873ffffffffffffffffffffffffffffffffffffffff1673ffffffffffffffffffffffffffffffffffffffff168152602001908152602001600020816000191690555084600660008873ffffffffffffffffffffffffffffffffffffffff1673ffffffffffffffffffffffffffffffffffffffff16815260200190815260200160002060006101000a81548173ffffffffffffffffffffffffffffffffffffffff021916908373ffffffffffffffffffffffffffffffffffffffff1602179055506001600760008873ffffffffffffffffffffffffffffffffffffffff1673ffffffffffffffffffffffffffffffffffffffff1681526020019081526020016000205403935084600885815481101515611ad357fe5b9060005260206000200160006101000a81548173ffffffffffffffffffffffffffffffffffffffff021916908373ffffffffffffffffffffffffffffffffffffffff160217905550600760008773ffffffffffffffffffffffffffffffffffffffff1673ffffffffffffffffffffffffffffffffffffffff16815260200190815260200160002054600760008773ffffffffffffffffffffffffffffffffffffffff1673ffffffffffffffffffffffffffffffffffffffff168152602001908152602001600020819055506000600760008873ffffffffffffffffffffffffffffffffffffffff1673ffffffffffffffffffffffffffffffffffffffff168152602001908152602001600020819055506000808773ffffffffffffffffffffffffffffffffffffffff1673ffffffffffffffffffffffffffffffffffffffff168152602001908152602001600020546000808773ffffffffffffffffffffffffffffffffffffffff1673ffffffffffffffffffffffffffffffffffffffff1681526020019081526020016000208190555060008060008873ffffffffffffffffffffffffffffffffffffffff1673ffffffffffffffffffffffffffffffffffffffff168152602001908152602001600020819055503373ffffffffffffffffffffffffffffffffffffffff168573ffffffffffffffffffffffffffffffffffffffff168773ffffffffffffffffffffffffffffffffffffffff167fb64971100522354f3d25283cb14e2eefcb0dd26a757482ccfe42479d0a68685760405160405180910390a4505050505050565b6000600360009054906101000a900473ffffffffffffffffffffffffffffffffffffffff1673ffffffffffffffffffffffffffffffffffffffff163373ffffffffffffffffffffffffffffffffffffffff16141515611d7f57600080fd5b600360149054906101000a900460ff16151515611d9b57600080fd5b6001600360146101000a81548160ff0219169083151502179055507fae5184fba832cb2b1f702aca6117b8d265eaf03ad33eb133f19dde0f5920fa0860405160405180910390a16001905090565b600360009054906101000a900473ffffffffffffffffffffffffffffffffffffffff1681565b600082600060010260001916600560008373ffffffffffffffffffffffffffffffffffffffff1673ffffffffffffffffffffffffffffffffffffffff168152602001908152602001600020546000191614151515611e6c57600080fd5b611e7584612320565b611e7f3384612414565b611e898484612bf0565b91505092915050565b60008060010260001916600560008473ffffffffffffffffffffffffffffffffffffffff1673ffffffffffffffffffffffffffffffffffffffff168152602001908152602001600020546000191614159050919050565b6000600360009054906101000a900473ffffffffffffffffffffffffffffffffffffffff1673ffffffffffffffffffffffffffffffffffffffff163373ffffffffffffffffffffffffffffffffffffffff16141515611f4757600080fd5b611f5082612e10565b9050919050565b600080600760008473ffffffffffffffffffffffffffffffffffffffff1673ffffffffffffffffffffffffffffffffffffffff1681526020019081526020016000205414159050919050565b600061203482600260003373ffffffffffffffffffffffffffffffffffffffff1673ffffffffffffffffffffffffffffffffffffffff16815260200190815260200160002060008673ffffffffffffffffffffffffffffffffffffffff1673ffffffffffffffffffffffffffffffffffffffff16815260200190815260200160002054612ec490919063ffffffff16565b600260003373ffffffffffffffffffffffffffffffffffffffff1673ffffffffffffffffffffffffffffffffffffffff16815260200190815260200160002060008573ffffffffffffffffffffffffffffffffffffffff1673ffffffffffffffffffffffffffffffffffffffff168152602001908152602001600020819055508273ffffffffffffffffffffffffffffffffffffffff163373ffffffffffffffffffffffffffffffffffffffff167f8c5be1e5ebec7d5bd14f71427d1e84f3dd0314c0f7b2291e5b200ac8c7c3b925600260003373ffffffffffffffffffffffffffffffffffffffff1673ffffffffffffffffffffffffffffffffffffffff16815260200190815260200160002060008773ffffffffffffffffffffffffffffffffffffffff1673ffffffffffffffffffffffffffffffffffffffff168152602001908152602001600020546040518082815260200191505060405180910390a36001905092915050565b6000600260008473ffffffffffffffffffffffffffffffffffffffff1673ffffffffffffffffffffffffffffffffffffffff16815260200190815260200160002060008373ffffffffffffffffffffffffffffffffffffffff1673ffffffffffffffffffffffffffffffffffffffff16815260200190815260200160002054905092915050565b600360009054906101000a900473ffffffffffffffffffffffffffffffffffffffff1673ffffffffffffffffffffffffffffffffffffffff163373ffffffffffffffffffffffffffffffffffffffff1614151561228257600080fd5b61228b81612ee0565b50565b60008073ffffffffffffffffffffffffffffffffffffffff168373ffffffffffffffffffffffffffffffffffffffff1614156122cd576000905061231a565b8160001916600560008573ffffffffffffffffffffffffffffffffffffffff1673ffffffffffffffffffffffffffffffffffffffff16815260200190815260200160002054600019161490505b92915050565b6000600760008373ffffffffffffffffffffffffffffffffffffffff1673ffffffffffffffffffffffffffffffffffffffff1681526020019081526020016000205414156124115760088190806001815401808255809150509060018203906000526020600020016000909192909190916101000a81548173ffffffffffffffffffffffffffffffffffffffff021916908373ffffffffffffffffffffffffffffffffffffffff160217905550600760008373ffffffffffffffffffffffffffffffffffffffff1673ffffffffffffffffffffffffffffffffffffffff168152602001908152602001600020819055505b50565b600080600080846000808873ffffffffffffffffffffffffffffffffffffffff1673ffffffffffffffffffffffffffffffffffffffff16815260200190815260200160002054039350600084111561246b5761262e565b6001600760008873ffffffffffffffffffffffffffffffffffffffff1673ffffffffffffffffffffffffffffffffffffffff1681526020019081526020016000205403925060016008805490500391506008828154811015156124ca57fe5b9060005260206000200160009054906101000a900473ffffffffffffffffffffffffffffffffffffffff1690508060088481548110151561250757fe5b9060005260206000200160006101000a81548173ffffffffffffffffffffffffffffffffffffffff021916908373ffffffffffffffffffffffffffffffffffffffff160217905550600760008773ffffffffffffffffffffffffffffffffffffffff1673ffffffffffffffffffffffffffffffffffffffff16815260200190815260200160002054600760008373ffffffffffffffffffffffffffffffffffffffff1673ffffffffffffffffffffffffffffffffffffffff1681526020019081526020016000208190555060088054809190600190036125e79190612fdc565b506000600760008873ffffffffffffffffffffffffffffffffffffffff1673ffffffffffffffffffffffffffffffffffffffff168152602001908152602001600020819055505b505050505050565b60008060008573ffffffffffffffffffffffffffffffffffffffff1673ffffffffffffffffffffffffffffffffffffffff16815260200190815260200160002054821115151561268557600080fd5b600260008573ffffffffffffffffffffffffffffffffffffffff1673ffffffffffffffffffffffffffffffffffffffff16815260200190815260200160002060003373ffffffffffffffffffffffffffffffffffffffff1673ffffffffffffffffffffffffffffffffffffffff16815260200190815260200160002054821115151561271057600080fd5b600073ffffffffffffffffffffffffffffffffffffffff168373ffffffffffffffffffffffffffffffffffffffff161415151561274c57600080fd5b61279d826000808773ffffffffffffffffffffffffffffffffffffffff1673ffffffffffffffffffffffffffffffffffffffff16815260200190815260200160002054612bd790919063ffffffff16565b6000808673ffffffffffffffffffffffffffffffffffffffff1673ffffffffffffffffffffffffffffffffffffffff16815260200190815260200160002081905550612830826000808673ffffffffffffffffffffffffffffffffffffffff1673ffffffffffffffffffffffffffffffffffffffff16815260200190815260200160002054612ec490919063ffffffff16565b6000808573ffffffffffffffffffffffffffffffffffffffff1673ffffffffffffffffffffffffffffffffffffffff1681526020019081526020016000208190555061290182600260008773ffffffffffffffffffffffffffffffffffffffff1673ffffffffffffffffffffffffffffffffffffffff16815260200190815260200160002060003373ffffffffffffffffffffffffffffffffffffffff1673ffffffffffffffffffffffffffffffffffffffff16815260200190815260200160002054612bd790919063ffffffff16565b600260008673ffffffffffffffffffffffffffffffffffffffff1673ffffffffffffffffffffffffffffffffffffffff16815260200190815260200160002060003373ffffffffffffffffffffffffffffffffffffffff1673ffffffffffffffffffffffffffffffffffffffff168152602001908152602001600020819055508273ffffffffffffffffffffffffffffffffffffffff168473ffffffffffffffffffffffffffffffffffffffff167fddf252ad1be2c89b69c2b068fc378daa952ba7f163c4a11628f55a4df523b3ef846040518082815260200191505060405180910390a3600190509392505050565b6000600360009054906101000a900473ffffffffffffffffffffffffffffffffffffffff1673ffffffffffffffffffffffffffffffffffffffff163373ffffffffffffffffffffffffffffffffffffffff16141515612a4f57600080fd5b600360149054906101000a900460ff16151515612a6b57600080fd5b612a8082600154612ec490919063ffffffff16565b600181905550612ad7826000808673ffffffffffffffffffffffffffffffffffffffff1673ffffffffffffffffffffffffffffffffffffffff16815260200190815260200160002054612ec490919063ffffffff16565b6000808573ffffffffffffffffffffffffffffffffffffffff1673ffffffffffffffffffffffffffffffffffffffff168152602001908152602001600020819055508273ffffffffffffffffffffffffffffffffffffffff167f0f6798a560793a54c3bcfe86a93cde1e73087d944c0ea20544137d4121396885836040518082815260200191505060405180910390a28273ffffffffffffffffffffffffffffffffffffffff16600073ffffffffffffffffffffffffffffffffffffffff167fddf252ad1be2c89b69c2b068fc378daa952ba7f163c4a11628f55a4df523b3ef846040518082815260200191505060405180910390a36001905092915050565b6000828211151515612be557fe5b818303905092915050565b60008060003373ffffffffffffffffffffffffffffffffffffffff1673ffffffffffffffffffffffffffffffffffffffff168152602001908152602001600020548211151515612c3f57600080fd5b600073ffffffffffffffffffffffffffffffffffffffff168373ffffffffffffffffffffffffffffffffffffffff1614151515612c7b57600080fd5b612ccc826000803373ffffffffffffffffffffffffffffffffffffffff1673ffffffffffffffffffffffffffffffffffffffff16815260200190815260200160002054612bd790919063ffffffff16565b6000803373ffffffffffffffffffffffffffffffffffffffff1673ffffffffffffffffffffffffffffffffffffffff16815260200190815260200160002081905550612d5f826000808673ffffffffffffffffffffffffffffffffffffffff1673ffffffffffffffffffffffffffffffffffffffff16815260200190815260200160002054612ec490919063ffffffff16565b6000808573ffffffffffffffffffffffffffffffffffffffff1673ffffffffffffffffffffffffffffffffffffffff168152602001908152602001600020819055508273ffffffffffffffffffffffffffffffffffffffff163373ffffffffffffffffffffffffffffffffffffffff167fddf252ad1be2c89b69c2b068fc378daa952ba7f163c4a11628f55a4df523b3ef846040518082815260200191505060405180910390a36001905092915050565b600080600660008473ffffffffffffffffffffffffffffffffffffffff1673ffffffffffffffffffffffffffffffffffffffff16815260200190815260200160002060009054906101000a900473ffffffffffffffffffffffffffffffffffffffff169050600073ffffffffffffffffffffffffffffffffffffffff168173ffffffffffffffffffffffffffffffffffffffff161415612eb257829150612ebe565b612ebb81612e10565b91505b50919050565b60008183019050828110151515612ed757fe5b80905092915050565b600073ffffffffffffffffffffffffffffffffffffffff168173ffffffffffffffffffffffffffffffffffffffff1614151515612f1c57600080fd5b8073ffffffffffffffffffffffffffffffffffffffff16600360009054906101000a900473ffffffffffffffffffffffffffffffffffffffff1673ffffffffffffffffffffffffffffffffffffffff167f8be0079c531659141344cd1fd0a4f28419497f9722a3daafe3b4186f6b6457e060405160405180910390a380600360006101000a81548173ffffffffffffffffffffffffffffffffffffffff021916908373ffffffffffffffffffffffffffffffffffffffff16021790555050565b815481835581811115613003578183600052602060002091820191016130029190613008565b5b505050565b61302a91905b8082111561302657600081600090555060010161300e565b5090565b905600a165627a7a723058208c269d177868b87aef843d3143b7d934678472d72c49d581b81332699eab35390029",
  "source": "pragma solidity ^0.4.24;\n\nimport 'openzeppelin-solidity/contracts/token/ERC20/MintableToken.sol';\nimport './ERC884.sol';\n\n\n/**\n *  An `ERC20` compatible token that conforms to Delaware State Senate,\n *  149th General Assembly, Senate Bill No. 69: An act to Amend Title 8\n *  of the Delaware Code Relating to the General Corporation Law.\n *\n *  Implementation Details.\n *\n *  An implementation of this token standard SHOULD provide the following:\n *\n *  `name` - for use by wallets and exchanges.\n *  `symbol` - for use by wallets and exchanges.\n *\n *  In addition to the above the following optional `ERC20` function MUST be defined.\n *\n *  `decimals`  MUST return `0` as each token represents a single Share and Shares are non-divisible.\n *\n *  @dev Ref https://github.com/ethereum/EIPs/blob/master/EIPS/eip-884.md\n */\ncontract ERC884ReferenceImpl is ERC884, MintableToken {\n\n    bytes32 constant private ZERO_BYTES = bytes32(0);\n    address constant private ZERO_ADDRESS = address(0);\n\n    uint public decimals = 0;\n\n    mapping(address => bytes32) private verified;\n    mapping(address => address) private cancellations;\n    mapping(address => uint256) private holderIndices;\n\n    address[] private shareholders;\n\n    modifier isVerifiedAddress(address addr) {\n        require(verified[addr] != ZERO_BYTES);\n        _;\n    }\n\n    modifier isShareholder(address addr) {\n        require(holderIndices[addr] != 0);\n        _;\n    }\n\n    modifier isNotShareholder(address addr) {\n        require(holderIndices[addr] == 0);\n        _;\n    }\n\n    modifier isNotCancelled(address addr) {\n        require(cancellations[addr] == ZERO_ADDRESS);\n        _;\n    }\n\n    /**\n     * As each token is minted it is added to the shareholders array.\n     * @param _to The address that will receive the minted tokens.\n     * @param _amount The amount of tokens to mint.\n     * @return A boolean that indicates if the operation was successful.\n     */\n    function mint(address _to, uint256 _amount)\n        public\n        onlyOwner\n        canMint\n        isVerifiedAddress(_to)\n        returns (bool)\n    {\n        // if the address does not already own share then\n        // add the address to the shareholders array and record the index.\n        updateShareholders(_to);\n        return super.mint(_to, _amount);\n    }\n\n    /**\n     *  The number of addresses that own tokens.\n     *  @return the number of unique addresses that own tokens.\n     */\n    function holderCount()\n        public\n        onlyOwner\n        view\n        returns (uint)\n    {\n        return shareholders.length;\n    }\n\n    /**\n     *  By counting the number of token holders using `holderCount`\n     *  you can retrieve the complete list of token holders, one at a time.\n     *  It MUST throw if `index >= holderCount()`.\n     *  @param index The zero-based index of the holder.\n     *  @return the address of the token holder with the given index.\n     */\n    function holderAt(uint256 index)\n        public\n        onlyOwner\n        view\n        returns (address)\n    {\n        require(index < shareholders.length);\n        return shareholders[index];\n    }\n\n    /**\n     *  Add a verified address, along with an associated verification hash to the contract.\n     *  Upon successful addition of a verified address, the contract must emit\n     *  `VerifiedAddressAdded(addr, hash, msg.sender)`.\n     *  It MUST throw if the supplied address or hash are zero, or if the address has already been supplied.\n     *  @param addr The address of the person represented by the supplied hash.\n     *  @param hash A cryptographic hash of the address holder's verified information.\n     */\n    function addVerified(address addr, bytes32 hash)\n        public\n        onlyOwner\n        isNotCancelled(addr)\n    {\n        require(addr != ZERO_ADDRESS);\n        require(hash != ZERO_BYTES);\n        require(verified[addr] == ZERO_BYTES);\n        verified[addr] = hash;\n        emit VerifiedAddressAdded(addr, hash, msg.sender);\n    }\n\n    /**\n     *  Remove a verified address, and the associated verification hash. If the address is\n     *  unknown to the contract then this does nothing. If the address is successfully removed, this\n     *  function must emit `VerifiedAddressRemoved(addr, msg.sender)`.\n     *  It MUST throw if an attempt is made to remove a verifiedAddress that owns Tokens.\n     *  @param addr The verified address to be removed.\n     */\n    function removeVerified(address addr)\n        public\n        onlyOwner\n    {\n        require(balances[addr] == 0);\n        if (verified[addr] != ZERO_BYTES) {\n            verified[addr] = ZERO_BYTES;\n            emit VerifiedAddressRemoved(addr, msg.sender);\n        }\n    }\n\n    /**\n     *  Update the hash for a verified address known to the contract.\n     *  Upon successful update of a verified address the contract must emit\n     *  `VerifiedAddressUpdated(addr, oldHash, hash, msg.sender)`.\n     *  If the hash is the same as the value already stored then\n     *  no `VerifiedAddressUpdated` event is to be emitted.\n     *  It MUST throw if the hash is zero, or if the address is unverified.\n     *  @param addr The verified address of the person represented by the supplied hash.\n     *  @param hash A new cryptographic hash of the address holder's updated verified information.\n     */\n    function updateVerified(address addr, bytes32 hash)\n        public\n        onlyOwner\n        isVerifiedAddress(addr)\n    {\n        require(hash != ZERO_BYTES);\n        bytes32 oldHash = verified[addr];\n        if (oldHash != hash) {\n            verified[addr] = hash;\n            emit VerifiedAddressUpdated(addr, oldHash, hash, msg.sender);\n        }\n    }\n\n    /**\n     *  Cancel the original address and reissue the Tokens to the replacement address.\n     *  Access to this function MUST be strictly controlled.\n     *  The `original` address MUST be removed from the set of verified addresses.\n     *  Throw if the `original` address supplied is not a shareholder.\n     *  Throw if the replacement address is not a verified address.\n     *  This function MUST emit the `VerifiedAddressSuperseded` event.\n     *  @param original The address to be superseded. This address MUST NOT be reused.\n     *  @param replacement The address  that supersedes the original. This address MUST be verified.\n     */\n    function cancelAndReissue(address original, address replacement)\n        public\n        onlyOwner\n        isShareholder(original)\n        isNotShareholder(replacement)\n        isVerifiedAddress(replacement)\n    {\n        // replace the original address in the shareholders array\n        // and update all the associated mappings\n        verified[original] = ZERO_BYTES;\n        cancellations[original] = replacement;\n        uint256 holderIndex = holderIndices[original] - 1;\n        shareholders[holderIndex] = replacement;\n        holderIndices[replacement] = holderIndices[original];\n        holderIndices[original] = 0;\n        balances[replacement] = balances[original];\n        balances[original] = 0;\n        emit VerifiedAddressSuperseded(original, replacement, msg.sender);\n    }\n\n    /**\n     *  The `transfer` function MUST NOT allow transfers to addresses that\n     *  have not been verified and added to the contract.\n     *  If the `to` address is not currently a shareholder then it MUST become one.\n     *  If the transfer will reduce `msg.sender`'s balance to 0 then that address\n     *  MUST be removed from the list of shareholders.\n     */\n    function transfer(address to, uint256 value)\n        public\n        isVerifiedAddress(to)\n        returns (bool)\n    {\n        updateShareholders(to);\n        pruneShareholders(msg.sender, value);\n        return super.transfer(to, value);\n    }\n\n    /**\n     *  The `transferFrom` function MUST NOT allow transfers to addresses that\n     *  have not been verified and added to the contract.\n     *  If the `to` address is not currently a shareholder then it MUST become one.\n     *  If the transfer will reduce `from`'s balance to 0 then that address\n     *  MUST be removed from the list of shareholders.\n     */\n    function transferFrom(address from, address to, uint256 value)\n        public\n        isVerifiedAddress(to)\n        returns (bool)\n    {\n        updateShareholders(to);\n        pruneShareholders(from, value);\n        return super.transferFrom(from, to, value);\n    }\n\n    /**\n     *  Tests that the supplied address is known to the contract.\n     *  @param addr The address to test.\n     *  @return true if the address is known to the contract.\n     */\n    function isVerified(address addr)\n        public\n        view\n        returns (bool)\n    {\n        return verified[addr] != ZERO_BYTES;\n    }\n\n    /**\n     *  Checks to see if the supplied address is a share holder.\n     *  @param addr The address to check.\n     *  @return true if the supplied address owns a token.\n     */\n    function isHolder(address addr)\n        public\n        view\n        returns (bool)\n    {\n        return holderIndices[addr] != 0;\n    }\n\n    /**\n     *  Checks that the supplied hash is associated with the given address.\n     *  @param addr The address to test.\n     *  @param hash The hash to test.\n     *  @return true if the hash matches the one supplied with the address in `addVerified`, or `updateVerified`.\n     */\n    function hasHash(address addr, bytes32 hash)\n        public\n        view\n        returns (bool)\n    {\n        if (addr == ZERO_ADDRESS) {\n            return false;\n        }\n        return verified[addr] == hash;\n    }\n\n    /**\n     *  Checks to see if the supplied address was superseded.\n     *  @param addr The address to check.\n     *  @return true if the supplied address was superseded by another address.\n     */\n    function isSuperseded(address addr)\n        public\n        view\n        onlyOwner\n        returns (bool)\n    {\n        return cancellations[addr] != ZERO_ADDRESS;\n    }\n\n    /**\n     *  Gets the most recent address, given a superseded one.\n     *  Addresses may be superseded multiple times, so this function needs to\n     *  follow the chain of addresses until it reaches the final, verified address.\n     *  @param addr The superseded address.\n     *  @return the verified address that ultimately holds the share.\n     */\n    function getCurrentFor(address addr)\n        public\n        view\n        onlyOwner\n        returns (address)\n    {\n        return findCurrentFor(addr);\n    }\n\n    /**\n     *  Recursively find the most recent address given a superseded one.\n     *  @param addr The superseded address.\n     *  @return the verified address that ultimately holds the share.\n     */\n    function findCurrentFor(address addr)\n        internal\n        view\n        returns (address)\n    {\n        address candidate = cancellations[addr];\n        if (candidate == ZERO_ADDRESS) {\n            return addr;\n        }\n        return findCurrentFor(candidate);\n    }\n\n    /**\n     *  If the address is not in the `shareholders` array then push it\n     *  and update the `holderIndices` mapping.\n     *  @param addr The address to add as a shareholder if it's not already.\n     */\n    function updateShareholders(address addr)\n        internal\n    {\n        if (holderIndices[addr] == 0) {\n            holderIndices[addr] = shareholders.push(addr);\n        }\n    }\n\n    /**\n     *  If the address is in the `shareholders` array and the forthcoming\n     *  transfer or transferFrom will reduce their balance to 0, then\n     *  we need to remove them from the shareholders array.\n     *  @param addr The address to prune if their balance will be reduced to 0.\n     @  @dev see https://ethereum.stackexchange.com/a/39311\n     */\n    function pruneShareholders(address addr, uint256 value)\n        internal\n    {\n        uint256 balance = balances[addr] - value;\n        if (balance > 0) {\n            return;\n        }\n        uint256 holderIndex = holderIndices[addr] - 1;\n        uint256 lastIndex = shareholders.length - 1;\n        address lastHolder = shareholders[lastIndex];\n        // overwrite the addr's slot with the last shareholder\n        shareholders[holderIndex] = lastHolder;\n        // also copy over the index (thanks @mohoff for spotting this)\n        // ref https://github.com/davesag/ERC884-reference-implementation/issues/20\n        holderIndices[lastHolder] = holderIndices[addr];\n        // trim the shareholders array (which drops the last entry)\n        shareholders.length--;\n        // and zero out the index for addr\n        holderIndices[addr] = 0;\n    }\n}\n",
  "sourcePath": "/Users/sharad/Documents/olypsis/veritoken-sto/Veritoken-STO/contracts/token/ERC884/ERC884ReferenceImpl.sol",
  "compiler": {
    "name": "solc",
    "version": "0.4.24+commit.e67f0147.Emscripten.clang"
  },
  "schemaVersion": "3.0.6",
  "updatedAt": "2019-04-03T18:13:32.912Z",
  "devdoc": {
    "methods": {
      "addVerified(address,bytes32)": {
        "params": {
          "addr": "The address of the person represented by the supplied hash.",
          "hash": "A cryptographic hash of the address holder's verified information."
        }
      },
      "allowance(address,address)": {
        "details": "Function to check the amount of tokens that an owner allowed to a spender.",
        "params": {
          "_owner": "address The address which owns the funds.",
          "_spender": "address The address which will spend the funds."
        },
        "return": "A uint256 specifying the amount of tokens still available for the spender."
      },
      "approve(address,uint256)": {
        "details": "Approve the passed address to spend the specified amount of tokens on behalf of msg.sender. Beware that changing an allowance with this method brings the risk that someone may use both the old and the new allowance by unfortunate transaction ordering. One possible solution to mitigate this race condition is to first reduce the spender's allowance to 0 and set the desired value afterwards: https://github.com/ethereum/EIPs/issues/20#issuecomment-263524729",
        "params": {
          "_spender": "The address which will spend the funds.",
          "_value": "The amount of tokens to be spent."
        }
      },
      "balanceOf(address)": {
        "details": "Gets the balance of the specified address.",
        "params": {
          "_owner": "The address to query the the balance of."
        },
        "return": "An uint256 representing the amount owned by the passed address."
      },
      "cancelAndReissue(address,address)": {
        "params": {
          "original": "The address to be superseded. This address MUST NOT be reused.",
          "replacement": "The address  that supersedes the original. This address MUST be verified."
        }
      },
      "decreaseApproval(address,uint256)": {
        "details": "Decrease the amount of tokens that an owner allowed to a spender. approve should be called when allowed[_spender] == 0. To decrement allowed value is better to use this function to avoid 2 calls (and wait until the first transaction is mined) From MonolithDAO Token.sol",
        "params": {
          "_spender": "The address which will spend the funds.",
          "_subtractedValue": "The amount of tokens to decrease the allowance by."
        }
      },
      "finishMinting()": {
        "details": "Function to stop minting new tokens.",
        "return": "True if the operation was successful."
      },
      "getCurrentFor(address)": {
        "params": {
          "addr": "The superseded address."
        },
        "return": "the verified address that ultimately holds the share."
      },
      "hasHash(address,bytes32)": {
        "params": {
          "addr": "The address to test.",
          "hash": "The hash to test."
        },
        "return": "true if the hash matches the one supplied with the address in `addVerified`, or `updateVerified`."
      },
      "holderAt(uint256)": {
        "params": {
          "index": "The zero-based index of the holder."
        },
        "return": "the address of the token holder with the given index."
      },
      "holderCount()": {
        "return": "the number of unique addresses that own tokens."
      },
      "increaseApproval(address,uint256)": {
        "details": "Increase the amount of tokens that an owner allowed to a spender. approve should be called when allowed[_spender] == 0. To increment allowed value is better to use this function to avoid 2 calls (and wait until the first transaction is mined) From MonolithDAO Token.sol",
        "params": {
          "_addedValue": "The amount of tokens to increase the allowance by.",
          "_spender": "The address which will spend the funds."
        }
      },
      "isHolder(address)": {
        "params": {
          "addr": "The address to check."
        },
        "return": "true if the supplied address owns a token."
      },
      "isSuperseded(address)": {
        "params": {
          "addr": "The address to check."
        },
        "return": "true if the supplied address was superseded by another address."
      },
      "isVerified(address)": {
        "params": {
          "addr": "The address to test."
        },
        "return": "true if the address is known to the contract."
      },
      "mint(address,uint256)": {
        "params": {
          "_amount": "The amount of tokens to mint.",
          "_to": "The address that will receive the minted tokens."
        },
        "return": "A boolean that indicates if the operation was successful."
      },
      "removeVerified(address)": {
        "params": {
          "addr": "The verified address to be removed."
        }
      },
      "renounceOwnership()": {
        "details": "Allows the current owner to relinquish control of the contract."
      },
      "totalSupply()": {
        "details": "Total number of tokens in existence"
      },
      "transferOwnership(address)": {
        "details": "Allows the current owner to transfer control of the contract to a newOwner.",
        "params": {
          "_newOwner": "The address to transfer ownership to."
        }
      },
      "updateVerified(address,bytes32)": {
        "params": {
          "addr": "The verified address of the person represented by the supplied hash.",
          "hash": "A new cryptographic hash of the address holder's updated verified information."
        }
      }
    }
  },
  "userdoc": {
    "methods": {
      "addVerified(address,bytes32)": {
        "notice": "Add a verified address, along with an associated verification hash to the contract. Upon successful addition of a verified address, the contract must emit `VerifiedAddressAdded(addr, hash, msg.sender)`. It MUST throw if the supplied address or hash are zero, or if the address has already been supplied."
      },
      "cancelAndReissue(address,address)": {
        "notice": "Cancel the original address and reissue the Tokens to the replacement address. Access to this function MUST be strictly controlled. The `original` address MUST be removed from the set of verified addresses. Throw if the `original` address supplied is not a shareholder. Throw if the replacement address is not a verified address. This function MUST emit the `VerifiedAddressSuperseded` event."
      },
      "getCurrentFor(address)": {
        "notice": "Gets the most recent address, given a superseded one. Addresses may be superseded multiple times, so this function needs to follow the chain of addresses until it reaches the final, verified address."
      },
      "hasHash(address,bytes32)": {
        "notice": "Checks that the supplied hash is associated with the given address."
      },
      "holderAt(uint256)": {
        "notice": "By counting the number of token holders using `holderCount` you can retrieve the complete list of token holders, one at a time. It MUST throw if `index >= holderCount()`."
      },
      "holderCount()": {
        "notice": "The number of addresses that own tokens."
      },
      "isHolder(address)": {
        "notice": "Checks to see if the supplied address is a share holder."
      },
      "isSuperseded(address)": {
        "notice": "Checks to see if the supplied address was superseded."
      },
      "isVerified(address)": {
        "notice": "Tests that the supplied address is known to the contract."
      },
      "mint(address,uint256)": {
        "notice": "As each token is minted it is added to the shareholders array."
      },
      "removeVerified(address)": {
        "notice": "Remove a verified address, and the associated verification hash. If the address is unknown to the contract then this does nothing. If the address is successfully removed, this function must emit `VerifiedAddressRemoved(addr, msg.sender)`. It MUST throw if an attempt is made to remove a verifiedAddress that owns Tokens."
      },
      "renounceOwnership()": {
        "notice": "Renouncing to ownership will leave the contract without an owner. It will not be possible to call the functions with the `onlyOwner` modifier anymore."
      },
      "transfer(address,uint256)": {
        "notice": "The `transfer` function MUST NOT allow transfers to addresses that have not been verified and added to the contract. If the `to` address is not currently a shareholder then it MUST become one. If the transfer will reduce `msg.sender`'s balance to 0 then that address MUST be removed from the list of shareholders."
      },
      "transferFrom(address,address,uint256)": {
        "notice": "The `transferFrom` function MUST NOT allow transfers to addresses that have not been verified and added to the contract. If the `to` address is not currently a shareholder then it MUST become one. If the transfer will reduce `from`'s balance to 0 then that address MUST be removed from the list of shareholders."
      },
      "updateVerified(address,bytes32)": {
        "notice": "Update the hash for a verified address known to the contract. Upon successful update of a verified address the contract must emit `VerifiedAddressUpdated(addr, oldHash, hash, msg.sender)`. If the hash is the same as the value already stored then no `VerifiedAddressUpdated` event is to be emitted. It MUST throw if the hash is zero, or if the address is unverified."
      }
    }
  }
}